:060000000A168A11B02867
:1000080083120313A600A501261C0B280C2811280F
:100018002408FC007C08A50711280310A40D031070
:10002800A60CA608031D19281A2808281B28250825
:100038001D280800831203133508BB003608BC00CE
:100048003708BD0003103C0D3D0DBE003E08BF0043
:10005800BF08031D3028312839280030B50000308A
:10006800B6000030B7000B290B293808BB00390847
:10007800BC003A08BD0003103C0D3D0DBE003E0813
:10008800C400C408031D49284A2852280030B50076
:100098000030B6000030B7000B290B2944087B3E1E
:1000A800BB003B08BF073508BB003608BC00370853
:1000B800BD0010300310BD0CBC0CBB0CFF3E031D73
:1000C8005E283B08BE003E08C4003808BB0039085B
:1000D800BC003A08BD0010300310BD0CBC0CBB0CB2
:1000E800FF3E031D70283B08BE003E08C406803052
:1000F800BB003B08C405B617B917FF30B805FF3079
:10010800B9050030BA050030C0000030C100003029
:10011800C2000730BB003B08C3009228351C952855
:100128009628A7283808C007390803110318390A80
:1001380003199F28C1073A08031103183A0A03193B
:10014800A628C207A72801300310B70CB60CB50CB7
:10015800FF3E031DA82801300310B80DB90DBA0DD4
:10016800FF3E031DB0280130C302031DBC28BD2873
:100178009228BE280930BB003B08C300C328351CA1
:10018800C628C728D8283808C00739080311031813
:10019800390A0319D028C1073A08031103183A0A83
:1001A8000319D728C207D82801300310B70CB60C9A
:1001B800B50CFF3E031DD92801300310C20CC10C39
:1001C800C00CFF3E031DE1280130C302031DED28CA
:1001D800EE28C328EF284008F0004108F100420843
:1001E800F2003F08BB003B08F3004408BC003C0891
:1001F800F4000A168A15A7250A128A1170088312B4
:100208000313B5007108B6007208B7000B2908007F
:1002180083160313B000633083120313E6006608E5
:1002280083160313A400E32F3608253A03191D2962
:100238001E293229360883120313E6008316031396
:10024800300884008312031366088313800001308A
:10025800E600660883160313B007E32FA501A6017D
:1002680083120313620884000A168A1100200A12F6
:100278008A112E3A031D412942299929831603130D
:100288002617013083120313E6006608E207831677
:100298000313B101B2018629831603133208F10151
:1002A800F1073108F001F0070A30F2000030F300DE
:1002B8000A168A15D1210A128A11831203136208B9
:1002C80084000A168A1100200A128A117007E600B3
:1002D8000030031801307107E7006608D03E831626
:1002E8000313B1008312031367080318013EFF3E8E
:1002F80083160313B200013083120313E600660865
:10030800E20786298312620884000A168A110020EF
:100318000A128A110A168A1535210A128A11031837
:10032800962997295029A529A52983160313B101D0
:10033800B2012616A529A529FA2F2615BB29E32FD0
:10034800BB29013083120313E207FF3062078400E0
:100358000A168A1100200A128A1183160313B6009E
:10036800003A0319FA2F663A0319A129E32F00303E
:10037800250583120313E6000730831603132605A9
:1003880083120313E700670866040319CC29CD29F3
:10039800582F83160313261ED229D329D8290630AD
:1003A800B1000030B200D829240884008313000863
:1003B800B300840A0008B400840A0008B5000330BA
:1003C80083120313E600660883160313A407330891
:1003D800F0003408F1003508F2000030F300003076
:1003E800F4000030F5000A168A15E8230A128A116B
:1003F8000318FF29002A1A2A831603133308F0006A
:100408003408F1003508F2000A168A1529210A1263
:100418008A11700883160313B3007108B4007208B8
:10042800B5000330A5040030A6041A2A8316031366
:10043800AE01AF013508340433040319242A252AF0
:10044800232BB33084008313000883120313E600C0
:10045800840A0008E700840A0008E800840A000803
:10046800E9000F300310E90CE80CE70CE60CFF3E3E
:10047800031D362AFF306605EA0000306705EB00E9
:100488006A08823E83160313AE00831203136B08B7
:100498000318013EFF3E83160313AF00FF30AE077B
:1004A8000318AF0AFF30AF070330F0000030F10047
:1004B8002F08F301F3072E08F201F2070A168A152E
:1004C800D1210A128A11710883160313AF01AF07ED
:1004D8007008AE01AE070A30F7000030F8002F08A8
:1004E800FA01FA072E08F901F9070A168A153125C3
:1004F8000A128A11780883160313AF01AF07770829
:10050800AE01AE07AF1F892A8A2A912AFF30AE07AB
:100518000318AF0AFF30AF07912A2E03FF3A0A12D9
:100528008A1513210A128A118312031345088316A8
:100538000313A70083120313460883160313A800A6
:1005480083120313470883160313A9003308831281
:100558000313B50083160313340883120313B6007C
:1005680083160313350883120313B7008316031386
:10057800270883120313B80083160313280883126D
:100588000313B90083160313290883120313BA004F
:100598000A128A111E200A128A11831203133508BF
:1005A80083160313A7008312031336088316031355
:1005B800A80083120313370883160313A90027081A
:1005C800F0002808F1002908F2000030F30080301C
:1005D800F4003F30F5000A168A15E8230A128A113A
:1005E8000318F72AF82A012BFF3083160313AE07E6
:1005F8000318AF0AFF30AF07232B8316031327080E
:10060800F0002808F1002908F2000030F30020303B
:10061800F4004130F5000A168A15E8230A128A11F7
:10062800031C172B182B232B013083160313AE073B
:100638000318AF0A0030AF07232B232B232B831675
:1006480003133208803AFF0080307F02031D2E2BEF
:100658000D3031020318312B322B6C2B8316031308
:1006680031080A168A1180240A128A118312031388
:100678005208C5005308C6005408C7008316031360
:10068800330883120313C800831603133408831234
:100698000313C90083160313350883120313CA0012
:1006A8000A168A11E6210A128A11831203134508D1
:1006B80083160313B3008312031346088316031328
:1006C800B40083120313470883160313B5006C2B79
:1006D800831603132F08803AFF0080307F02031D22
:1006E800772B0A302E0203187A2B7B2BB32B831619
:1006F80003133508340433040319832B842B3C2C4F
:10070800330883120313A7008316031334088312D4
:100718000313A80083160313350883120313A900D3
:100728000A168A15B2260A128A11831203132A0896
:10073800290428042704031DA22BA32B3C2C831671
:1007480003132F08803AFF0080307F02031DAE2B71
:1007580002302E02031CB12BB22B3C2CB32B831678
:1007680003132708F0002808F1002908F200703068
:10077800F3008930F4004030F5000A168A15E823A2
:100788000A128A110318C92BCA2BD32BF7308316E8
:100798000313AE070318AF0AFF30AF07DC2BF8309E
:1007A80083160313AE070318AF0AFF30AF07DC2B1D
:1007B8002E080A128A1513210A128A1183120313AA
:1007C800450883160313A7008312031346088316EC
:1007D8000313A80083120313470883160313A90001
:1007E800112C3308F0003408F1003508F20027080E
:1007F800F3002808F4002908F5000A168A112C23AA
:100808000A128A11730883160313A3007208A20040
:100818007108A1007008A0002D2C3308F0003408DE
:10082800F1003508F2002708F3002808F400290829
:10083800F5000A128A1531200A128A1173088316E4
:100848000313A3007208A2007108A1007008A00099
:100858002D2C2308AD002208AC002108AB0020088D
:10086800AA000030B3000030B4000030B500AC2C52
:1008780083160313330883120313A7008316031385
:10088800340883120313A800831603133508831250
:100898000313A9000A168A15B2260A128A118312AE
:1008A80003132A0883160313AD00831203132908C0
:1008B80083160313AC00831203132808831603134B
:1008C800AB0083120313270883160313AA002D080D
:1008D800FB002C08FA002B08F9002A08F8000A1671
:1008E8008A1527220A128A11780883120313D20064
:1008F8007908D3007A08D4008316031333088312C7
:100908000313D50083160313340883120313D60088
:1009180083160313350883120313D7000A168A15A2
:1009280091210A128A1183120313520883160313A2
:10093800B30083120313530883160313B4008312FE
:100948000313540883160313B500AE01AF01AC2C92
:10095800B6010314B60D36080A3A031DB42CB52C9B
:10096800B72C0E2D0E2D360883120313E600013026
:100978000310E60DFF3E031DBC2C0310660D013E5F
:1009880084000A168A1100200A128A11E7000A1642
:100998008A1100200A128A11E8000A168A1100201A
:1009A8000A128A11E9000A168A1100200A128A110D
:1009B800EA006A08831603132D02031DF92C83121B
:1009C80003136908831603132C02031DF92C8312E1
:1009D80003136808831603132B02031DF92C8312D3
:1009E80003136708831603132A020318FC2CFD2C33
:1009F800FF2C0E2D0E2D013083120313E60066081E
:100A080083160313B60736080A3A031D0C2D0D2D5D
:100A1800B72C0E2D0330250583120313E600003092
:100A280083160313260583120313E7006708660479
:100A380003191F2D202D982D2D30E6008316031342
:100A48003008840083120313660883138000013082
:100A5800E600660883160313B007982D982D00301A
:100A680083120313A3000030A2000030A1000A3053
:100A7800A00083160313360883120313E60001301F
:100A88000310E60DFF3E031D442D0310660D013EC5
:100A980084000A168A1100200A128A11F0000A1628
:100AA8008A1100200A128A11F1000A168A11002000
:100AB8000A128A11F2000A168A1100200A128A11F3
:100AC800F300831603132D08F7002C08F6002B08F3
:100AD800F5002A08F4000A168A1554240A128A1105
:100AE800730883120313A7007208A6007108A500F3
:100AF8007008A4000A168A1524230A128A11831280
:100B080003132008303EE7008316031330088400DF
:100B1800831203136708831380000130E600660818
:100B280083160313B007982DFF308312E60066087A
:100B380083160313B6073608FF3A031DA42DA52D07
:100B4800332DC12DC12D303083120313E6008316D7
:100B5800031330088400831203136608831380008C
:100B68000130E600660883160313B007FF30AE07AE
:100B78000318AF0AFF30AF07C12D2F08803AFF00D6
:100B880080307F02031DCA2D01302E020318CD2D9F
:100B9800CE2DA72DCF2D831603133208803AFF00E0
:100BA80080307F02031DDA2D09303102031CDD2D50
:100BB800DE2DE72D083083120313E600660883163E
:100BC8000313B600F12D83160313310883120313A0
:100BD800E600660883160313B6003608831203136B
:100BE800E600E701E61BE703660883160313B10274
:100BF80083120313670883160313031CB203B2029C
:100C08003608031D082E1C2E2E3083120313E6000F
:100C180083160313300884008312031366088313B2
:100C280080000130E600660883160313B0071C2E07
:100C380036080A128A1513210A128A11831203131D
:100C48004508B8004608B9004708BA0083160313D8
:100C5800330883120313B500831603133408831271
:100C68000313B60083160313350883120313B70062
:100C78000A128A111E200A128A11831203133508D8
:100C8800A7003608A8003708A9000A168A15B22650
:100C98000A128A11831203132A0883160313AD005C
:100CA80083120313290883160313AC00831203135A
:100CB800280883160313AB0083120313270883162F
:100CC8000313AA00262F003083120313A300003059
:100CD800A2000030A1000A30A000831603133608D2
:100CE80083120313E60001300310E60DFF3E031DD7
:100CF800782E0310660D013E84000A168A11002022
:100D08000A128A11F0000A168A1100200A128A11A2
:100D1800F1000A168A1100200A128A11F2000A1636
:100D28008A1100200A128A11F300831603132D0872
:100D3800F7002C08F6002B08F5002A08F4000A161C
:100D48008A1554240A128A11730883120313A70000
:100D58007208A6007108A5007008A4000A168A1572
:100D680024230A128A11831203132008303EE70055
:100D78008316031330088400831203136708831350
:100D880080000130E600660883160313B0073608B2
:100D980083120313E60001300310E60DFF3E031D26
:100DA800D02E0310660D013E84000A168A11002019
:100DB8000A128A11A0000A168A1100200A128A1142
:100DC800A1000A168A1100200A128A11A2000A1626
:100DD8008A1100200A128A11A300831603132D0812
:100DE80083120313A700831603132C08831203131B
:100DF800A600831603132B0883120313A50083167A
:100E080003132A0883120313A4000A168A1524233D
:100E18000A128A1183120313230883160313AD00E1
:100E280083120313220883160313AC0083120313DF
:100E3800210883160313AB008312031320088316BB
:100E48000313AA00FF3083120313E6006608831613
:100E58000313B6073608FF3A031D332F342F672EC6
:100E6800502F502F303083120313E60083160313DC
:100E7800300884008312031366088313800001304E
:100E8800E600660883160313B007FF30B10703189E
:100E9800B20AFF30B207502F32083104031D552F14
:100EA800562F362FE32FE32F83160313320831040E
:100EB800031D5F2F602F6E2F2D082C042B042A048E
:100EC800031D672F682F6E2F0130B1070318B20A70
:100ED8000030B207360883120313E600E701E61B69
:100EE800E7036708803AE800831603133208803A5C
:100EF800831203136802031D872F83160313310817
:100F080083120313660203188A2F8B2F962F8316DA
:100F18000313310883120313E600660883160313CC
:100F2800B600BC2F83160313360883120313E6009A
:100F3800E701E61BE703831603133208803A83129E
:100F48000313E8006708803A6802031DAF2F66089C
:100F58008316031331020318B22FB32FBC2F831645
:100F680003133608B100B201B11BB203BC2FBC2F6A
:100F7800033083160313250583120313E60000309C
:100F880083160313260583120313E7006708660414
:100F98000319CF2FD02FE32F2D30E600831603132C
:100FA800300884008312031366088313800001301D
:100FB800E600660883160313B007E32FE32F01301A
:100FC8008312E207FF30620784000A168A110020A4
:100FD8000A128A11E600660883160313B600B608DB
:100FE800031DF72FF82F1829FA2FFA2F300884003D
:080FF80083138001FF2F0800A4
:10100A00F4008312031388140F30F2007208880563
:10101A007408F039F200720888040A168A157821D1
:10102A000A128A150F30F200720883120313880518
:10103A007408F20003300310F20DFF3E031D20284E
:10104A000310720DF039F300730888040A168A1522
:10105A0078210A128A1508007008F6007108F7004C
:10106A007208F8000310770D780DF90079088312D9
:10107A000313A500A508031D432844284E28003061
:10108A00F3000030F2000030F1000030F0001229C5
:10109A0012297308F6007408F7007508F80003109F
:1010AA00770D780DF9007908A400A408031D5E28BD
:1010BA005F2869280030F3000030F2000030F100A8
:1010CA000030F00012291229F117FF30F005FF3025
:1010DA00F1050030F205F417FF30F305FF30F4058F
:1010EA000030F5050030A3000030A2000030A10056
:1010FA000030A0007F30A50298302407F600760859
:10110A00A5021830F6007608A4008B280130F600F4
:10111A000310A00DA10DA20DA30DF60B8D287508C5
:10112A007202031D9E2874087102031D9E2873080B
:10113A007002031CA128A228AE287308F0027408C2
:10114A00031C740FF1027508031C750AF2022014BD
:10115A00AE2801300310F00DF10DF20DFF3E031D14
:10116A00AF280130A402031DBB28BC288B28A51F69
:10117A00BF28C028E5282508803A973E0318C628C4
:10118A00C728D2280030F3000030F2000030F10006
:10119A000030F00012291229D22801300310A30CC2
:1011AA00A20CA10CA00CFF3E031DD3280130F600AF
:1011BA007608A507031DE228E328D2280929092968
:1011CA0018302502031CEA28EB2802290030F30014
:1011DA000030F2000030F1000030F000122912292C
:1011EA0002290130F6000310A00DA10DA20DA30DD6
:1011FA00F60BF8280130A5020229A508031D0629C5
:10120A000729F628092909292308F3002208F200E8
:10121A002108F1002008F0001229080083120313A4
:10122A00CD00CD1F19291A29772ACD09CD0A4D08D3
:10123A00803A123E031C22292329E1290330C800DF
:10124A004808A4000A30F7000030F8004D08F20000
:10125A00F301F21BF3036430F0000030F1000A16C8
:10126A008A1582230A128A157108FA01FA07700888
:10127A00F901F9070A168A1531250A128A1577081B
:10128A00093E0A128A1104200A128A15293E84008C
:10129A000A168A1100200A128A1583120313B5004E
:1012AA000A168A1100200A128A15B6000A168A112D
:1012BA0000200A128A15B7000330C9004908A400A1
:1012CA006430F7000030F8004D08F900FA01F91B04
:1012DA00FA030A168A1531250A128A157708123E68
:1012EA000A128A1104200A128A15293E84000A1653
:1012FA008A1100200A128A1583120313B8000A16EB
:10130A008A1100200A128A15B9000A168A110020C9
:10131A000A128A15BA000A128A111E200A128A159E
:10132A00831203133508CA003608CB003708CC00ED
:10133A000330C8004808A4004D08F200F301F21B6C
:10134A00F3030A30F0000030F1000A168A158223EE
:10135A000A128A1570080A128A1104200A128A15BA
:10136A00293E84000A168A1100200A128A1583125D
:10137A000313B5000A168A1100200A128A15B6004C
:10138A000A168A1100200A128A15B7004A08B800FC
:10139A004B08B9004C08BA000A128A111E200A1218
:1013AA008A15831203133508C5003608C6003708A4
:1013BA00C700D12BD12B552A4D08803A753E031C04
:1013CA00E729E829552A0330C8004808A4004D082F
:1013DA00F200F301F21BF3030A30F0000030F100CF
:1013EA000A168A1582230A128A1570080A128A11A5
:1013FA0004200A128A15293E84000A168A1100203E
:10140A000A128A1583120313B5000A168A110020DC
:10141A000A128A15B6000A168A1100200A128A15BB
:10142A00B7000330C9004908A4000A30F7000030A9
:10143A00F8004D08F900FA01F91BFA030A168A1591
:10144A0031250A128A157708093E0A128A110420E0
:10145A000A128A15293E84000A168A1100200A12E5
:10146A008A1583120313B8000A168A1100200A1279
:10147A008A15B9000A168A1100200A128A15BA00BA
:10148A000A128A111E200A128A15831203133508BA
:10149A00C5003608C6003708C700D12BD12B552AFC
:1014AA000330C8004808A4004D080A128A11042013
:1014BA000A128A15293E84000A168A1100200A1285
:1014CA008A1583120313C5000A168A1100200A120C
:1014DA008A15C6000A168A1100200A128A15C70040
:1014EA00D12BD12B4D08803A123E031C7D2A7E2A2D
:1014FA003C2B0330C8004808A4000A30F70000302B
:10150A00F8004D08F200F301F21BF3036430F00017
:10151A000030F1000A168A1582230A128A15710808
:10152A00FA01FA077008F901F9070A168A1531252E
:10153A000A128A157708093E0A128A1104200A1229
:10154A008A15503E84000A168A1100200A128A154A
:10155A0083120313B5000A168A1100200A128A158B
:10156A00B6000A168A1100200A128A15B70003303B
:10157A00C9004908A4006430F7000030F8004D089B
:10158A00F900FA01F91BFA030A168A1531250A121B
:10159A008A157708123E0A128A1104200A128A153D
:1015AA00503E84000A168A1100200A128A158312F4
:1015BA000313B8000A168A1100200A128A15B90004
:1015CA000A168A1100200A128A15BA000A128A110A
:1015DA001E200A128A15831203133508CA00360818
:1015EA00CB003708CC000330C8004808A4004D08D7
:1015FA00F200F301F21BF3030A30F0000030F100AD
:10160A000A168A1582230A128A1570080A128A1182
:10161A0004200A128A15503E84000A168A110020F4
:10162A000A128A1583120313B5000A168A110020BA
:10163A000A128A15B6000A168A1100200A128A1599
:10164A00B7004A08B8004B08B9004C08BA000A1299
:10165A008A111E200A128A15831203133508C5003F
:10166A003608C6003708C700D12BD12BB02B4D083E
:10167A00803A753E031C422B432BB02B0330C80023
:10168A004808A4004D08F200F301F21BF3030A30E4
:10169A00F0000030F1000A168A1582230A128A1510
:1016AA0070080A128A1104200A128A15503E840010
:1016BA000A168A1100200A128A1583120313B5002A
:1016CA000A168A1100200A128A15B6000A168A1109
:1016DA0000200A128A15B7000330C9004908A4007D
:1016EA000A30F7000030F8004D08F900FA01F91B3A
:1016FA00FA030A168A1531250A128A157708093E4D
:10170A000A128A1104200A128A15503E84000A1607
:10171A008A1100200A128A1583120313B8000A16C6
:10172A008A1100200A128A15B9000A168A110020A5
:10173A000A128A15BA000A128A111E200A128A157A
:10174A00831203133508C5003608C6003708C700D8
:10175A00D12BD12BB02B0330C8004808A4004D0868
:10176A000A128A1104200A128A15503E84000A16A7
:10177A008A1100200A128A1583120313C5000A1659
:10178A008A1100200A128A15C6000A168A11002038
:10179A000A128A15C700D12B0800003083160313DA
:1017AA00DE000030DD000030DC000030DB002E30CF
:1017BA00B7003708DA000030E2000030E1000030FC
:1017CA00E0000030DF00D801D901D201D301D401F1
:1017DA00D5010030CF000030D0000030D1000A1609
:1017EA008A151D210A128A150A168A1522260A1234
:1017FA008A150A168A154A210A128A15042C0230F9
:10180A000A168A15FB210A128A15C52C0A168A1588
:10181A0060210A128A1583160313B7003708E300FA
:10182A0063080A168A15C2240A128A1578088316CA
:10183A000313D901D9077708D801D8070D305806FC
:10184A0059040319292C2A2C932C63080A128A1585
:10185A0005200A128A15831603135808B700590877
:10186A00B8000030B81BFF30B900BA005E08F300B8
:10187A005D08F2005C08F1005B08F0000030F70038
:10188A000030F6000030F5000A30F4000A168A1516
:10189A008D220A128A15700883160313B707710876
:1018AA000318710F592C5A2CB80772080318720FB3
:1018BA005F2C602CB90773080318730ABA073A0831
:1018CA00DE003908DD003808DC003708DB00C52CEB
:1018DA00932C2B30B7003708DA000130D4000030DF
:1018EA00D500A12C2D30B7003708DA000130D4001A
:1018FA000030D500A12C5E30B7003708DA0001307D
:10190A00D4000030D500A12C0130D2000030D30021
:10191A000130D4000030D500A12CA12C63082B3A49
:10192A0003196E2C063A0319772C023A0319892CEB
:10193A00573A0319802CA12C53085204031DA62CD4
:10194A00A72CB42C5A082E3A0319AC2CAD2CB42C63
:10195A005A080A128A1505200A128A15B42C831607
:10196A0003135A085E3A031DBB2CBC2CC52C32301B
:10197A000A128A1505200A128A15C52CC52CC52CEF
:10198A0083160313550854040319CC2CCD2C0B2CA5
:10199A00182D182D0A168A1560210A128A1583161F
:1019AA000313B7003708E300F02C7830B700370884
:1019BA00DA00D201D301FB2C2F30B7003708DA0046
:1019CA00D201D301FB2C6630B7003708DA00D20106
:1019DA00D301FB2CFB2C63082B3A0319DA2C063AA9
:1019EA000319E12C553A0319E82CFB2C5A08663ADC
:1019FA00031D002D012D0E2DE8300A128A1505202F
:101A0A000A128A1532300A128A1505200A128A1514
:101A1A00182D831603135A080A128A1505200A126A
:101A2A008A15182D182D8316031353085204031D03
:101A3A001F2D202DCF2C212DD401D501A42D0A161E
:101A4A008A1560210A128A1583160313B70037080C
:101A5A00E30063080A168A15C2240A128A1578084E
:101A6A0083160313D901D9077708D801D8070D308F
:101A7A00580659040319422D432D9D2D63080A1255
:101A8A008A1505200A128A15831603135808B70007
:101A9A005908B8000030B81BFF30B900BA00620814
:101AAA00F3006108F2006008F1005F08F0000030FE
:101ABA00F7000030F6000030F5000A30F4000A168C
:101ACA008A158D220A128A15700883160313B7071E
:101ADA0071080318710F722D732DB8077208031855
:101AEA00720F782D792DB90773080318730ABA078C
:101AFA003A08E2003908E1003808E0003708DF0058
:101B0A00A42D9D2DC0300A168A15FB210A128A15AA
:101B1A008316031363080A128A1505200A128A1506
:101B2A00013083160313D4000030D500A42DA42D50
:101B3A0063083D3A0319872DA42DA42DA42D550819
:101B4A0054040319A92DAA2D242D6E2F6E2F5B087C
:101B5A005F07B7000030031801305C07B9010318AA
:101B6A00B90A6007B8000318B90A5D083907BA014B
:101B7A000318BA0A6107B9000318BA0A5E083A07D5
:101B8A006207BA003A0883120313A90083160313E3
:101B9A00390883120313A800831603133808831223
:101BAA000313A70083160313370883120313A6002F
:101BBA000A168A15D7220A128A15831203132608CF
:101BCA0083160313CF008312031327088316031304
:101BDA00D00083120313280883160313D100822F1F
:101BEA005B08B7005C08B8005D08B9005E08BA0077
:101BFA005F09BB006009BC006109BD006209BE0043
:101C0A00BB0A0319BC0A0319BD0A0319BE0A3B0819
:101C1A00B7073C0803183C0F132E142EB8073D08CB
:101C2A0003183D0F192E1A2EB9073E0803183E0A4B
:101C3A00BA073A0883120313A90083160313390853
:101C4A0083120313A800831603133808831203139D
:101C5A00A70083160313370883120313A6000A1674
:101C6A008A15D7220A128A158312031326088316A5
:101C7A000313CF0083120313270883160313D0001C
:101C8A0083120313280883160313D100822F5E08D8
:101C9A00F3005D08F2005C08F1005B08F0006208DE
:101CAA00F7006108F6006008F5005F08F4000A16FC
:101CBA008A158D220A128A15730883120313A90042
:101CCA007208A8007108A7007008A6000A168A15EB
:101CDA00D7220A128A1583120313260883160313BE
:101CEA00CF0083120313270883160313D00083122D
:101CFA000313280883160313D100822F6208610494
:101D0A0060045F04031D8A2E8B2E952E0230F70085
:101D1A000030F8000A168A1559220A128A15CF2E9F
:101D2A00831603136208F3006108F2006008F100E9
:101D3A005F08F0005E08F7005D08F6005C08F50031
:101D4A005B08F4000A168A1558270A128A157308BE
:101D5A0083120313A9007208A8007108A70070086B
:101D6A00A6000A168A15D7220A128A1583120313A5
:101D7A00260883160313CF0083120313270883163A
:101D8A000313D00083120313280883160313D10008
:101D9A00822FCF2E831603136208610460045F0446
:101DAA000319D82ED92EE32E0230F7000030F8009E
:101DBA000A168A1559220A128A15822F83160313C4
:101DCA005E08F3005D08F2005C08F1005B08F000B1
:101DDA005E08F7005D08F6005C08F5005B08F40091
:101DEA000A168A158D220A128A157308831203139A
:101DFA00A9007208A8007108A7007008A6000A16B0
:101E0A008A15D7220A128A15831203132608831603
:101E1A000313CF0083120313270883160313D0007A
:101E2A0083120313280883160313D100822F822FEB
:101E3A006208610460045F040319242F252F2F2FE1
:101E4A000230F7000030F8000A168A1559220A12E1
:101E5A008A15822F831603135E0883120313A900BF
:101E6A00831603135D0883120313A8008316031352
:101E7A005C0883120313A700831603135B088312FB
:101E8A000313A6000A168A15D7220A128A15831284
:101E9A0003132608D8002708D9002808DA000A16EA
:101EAA008A11B6200A128A15831203135808831658
:101EBA000313CF0083120313590883160313D000A8
:101ECA00831203135A0883160313D100822F822F19
:101EDA00822F5A082B3A0319AC2D063A0319F52D0D
:101EEA00023A0319832E713A0319CF2E383A03198D
:101EFA001D2F1E3A03194C2E822FA130831603136D
:101F0A00B700370883120313E200831603134F083E
:101F1A0083120313E3008316031350088312031377
:101F2A00E40083160313510883120313E500BF303C
:101F3A000A128A110C210A128A1583160313D60172
:101F4A00D7015708803AFF0080307F02031DAF2F68
:101F5A0010305602031CB22FB32FB52FE32FE32FF5
:101F6A00831603135608BF3E840083138008031D9B
:101F7A00BF2FC02FC32FE32FE32FCD2F5608BF3E0D
:101F8A00840000080A128A1505200A128A15CD2F24
:101F9A00013083160313D6070318D70A0030D70770
:101FAA005708803AFF0080307F02031DDE2F103071
:101FBA005602031CE12FE22FB52FE32F83160313DA
:101FCA00D401D5010030DE000030DD000030DC0035
:101FDA000030DB000030E2000030E1000030E000B9
:101FEA000030DF002E30B7003708DA00042C042C4A
:101FFA000A128A11002810308A000408840A82070B
:10200A00003401340034003400340A34003400341B
:10201A0000346434003400340034E83403340034C7
:10202A0000341034273400340034A03486340134A8
:10203A000034403442340F340034803496349834B7
:10204A0000340034E134F53405340034CA349A34A7
:10205A003B34003480343F34CD34CC343D34D7342F
:10206A0023343C34123483343A34B734D1343834D8
:10207A00C63427343734383486343534C034D63409
:10208A003334CC342B343234703489343034E7343A
:10209A00DB342E34E5343C341E344234A2340D345D
:1020AA00003480343F340034203441340034C8349E
:1020BA00423400347A34443440341C344634503484
:1020CA00C3344734243474344934973418344B3481
:1020DA00BC34BE344C346B346E344E340334153451
:1020EA0050347934AD346034F3344934713457346C
:1020FA0072346F346E3467342034463475346E3437
:10210A006334743469346F346E340034573472343F
:10211A006F346E3467342034413472346734753422
:10212A006D3465346E3474340034573472346F3419
:10213A006E346734203449346E34703475347434F0
:0C214A00003425342E3432346634003466
:10216000EE01EF0183010A128A15D22B0030F00034
:102170000030F1000030F200831203135808F3001E
:102180005908F4005A08F5000A168A15E8230A16B9
:102190008A11031CCC28CD28F42883120313580875
:1021A000F0005908F1005A08F2000030F300003046
:1021B000F4000030F5000A168A15E8230A168A1181
:1021C0000318E328E428EA28213083120313EE00E1
:1021D0000030EF00003083120313D8000030D90024
:1021E0000030DA00E529E529831203135808E400DA
:1021F0005908E5005A08E600C830DB006E30DC0004
:10220000BE30DD005809DE005909DF005A09E00040
:10221000DE0A0319DF0A0319E00A5E08DB075F081C
:1022200003185F0F14291529DC0760080318600FD5
:102230001A291B29DD075B08EB005C08EC005D0830
:10224000ED0001300310ED0CEC0CEB0CFF3E031D18
:1022500022290030DB008030DC000030DD005B082C
:10226000E4025C08031C5C0F36293729E5025D088F
:10227000031C5D0A3C293D29E6020430DB005B08B3
:10228000E7006B08E1006C08E2006D08E3006408F9
:10229000B5006508B6006608B7006B08B8006C08A2
:1022A000B9006D08BA000A128A111E200A168A1196
:1022B000831203133508E8003608E9003708EA00FE
:1022C0006B08B5006C08B6006D08B7006808B80068
:1022D0006908B9006A08BA000A128A111E200A1693
:1022E0008A11831203133508E8003608E90037081D
:1022F000EA006B08B5006C08B6006D08B700680806
:10230000B8006908B9006A08BA000A128A111E20CA
:102310000A168A11831203133508E8003608E9000B
:102320003708EA000030B500C030B6003F30B700D3
:102330006B08B8006C08B9006D08BA000A128A115F
:102340001E200A168A11831203133508EB00360883
:10235000EC003708ED006808D2006908D3006A086D
:10236000D4006B08D5006C08D6006D08D7000A169B
:102370008A1591210A168A11831203135208EB0061
:102380005308EC005408ED000130E702031DC92991
:10239000CA294129CB295808B5005908B6005A085E
:1023A000B7006B08B8006C08B9006D08BA000A12D3
:1023B0008A111E200A168A11831203133508D800C9
:1023C0003608D9003708DA00E5290800831203131C
:1023D0004508CB004608CC004708CD0003104C0D43
:1023E0004D0DCE004E08D1004808CB004908CC0066
:1023F0004A08CD0003104C0D4D0DCE004E08D00004
:102400005108031D042A152A500851020318092AED
:102410000A2A1D2A5103FF3A5007CB0019304B02FC
:10242000031C132A142A1D2A152A4808C500490826
:10243000C6004A08C7002B2B2B2B5008031D212A4E
:10244000312A510850020318262A272A322A50031B
:10245000FF3A5107CB0019304B02031C302A312AB6
:10246000322A2B2B0630CB004B08CF00C71F392A4E
:102470003A2A3B2ACF17CA1F3E2A3F2A402A4F1723
:10248000C617FF30C505FF30C6050030C705C917A0
:10249000FF30C805FF30C9050030CA055008510299
:1024A0000318532A542A852A552A01300310C80DCF
:1024B000C90DCA0DFF3E031D562A0130D002500837
:1024C00051060319642A652A7D2A0130CF024F087C
:1024D0000739031D6C2A6D2A552A7D2A7D2A7D2AFB
:1024E00001300310C70CC60CC50CFF3E031D712A3A
:1024F0000130CB004B08D1077D2A51085006031D3F
:10250000822A832A702ABC2ABC2A51085002031846
:102510008A2A8B2ABC2A8C2A01300310C50DC60DCD
:10252000C70DFF3E031D8D2A0130D1025008510610
:1025300003199B2A9C2AB42A0130CF024F0807397D
:10254000031DA32AA42A8C2AB42AB42AB42A01304F
:102550000310CA0CC90CC80CFF3E031DA82A013089
:10256000CB004B08D007B42A51085006031DB92AE6
:10257000BA2AA72ABC2ABC2ACF1FBF2AC02AD12A1E
:10258000FF30C506FF30C606FF30C7060130C5075D
:10259000003003180130C607003003180130C707A8
:1025A000D12A4F1FD42AD52AE62AFF30C806FF3089
:1025B000C906FF30CA060130C807003003180130D1
:1025C000C907003003180130CA07E62ACF014508C1
:1025D000C807460803110318460A0319F02AC90759
:1025E000470803110318470A0319F72ACA07CA1F25
:1025F000FA2AFB2A0F2BFF30C806FF30C906FF302E
:10260000CA060130C807003003180130C90700307E
:1026100003180130CA07CF010314CF0D0F2B480850
:10262000F0004908F1004A08F2005108CB004B08BD
:10263000F3004F08CC004C08F4000A168A15A725B1
:102640000A168A11700883120313C5007108C600A8
:102650007208C7002B2B0800703084000008F600B9
:10266000840A0008F700840A0008F800840A0008B9
:10267000F9000310780D790DFA007A08831203131C
:10268000A500A508031D452B462B502B0030F30059
:102690000030F2000030F1000030F0007F2C7F2C81
:1026A000733084000008F600840A0008F700840AEA
:1026B0000008F800840A0008F9000310780D790D6D
:1026C000FA007A08A400A408031D672B682B722B5C
:1026D0000030F3000030F2000030F1000030F00074
:1026E0007F2C7F2C7030840000308004840A0030FE
:1026F0008004840A80308004840A003080047030B2
:102700008400FF308005840AFF308005840AFF3092
:102710008005840A00308005733084000030800416
:10272000840A00308004840A80308004840A0030E7
:10273000800473308400FF308005840AFF308005F8
:10274000840AFF308005840A003080050030A30031
:102750000030A2000030A1000030A0007F30A502B0
:10276000A0302407F6007608A5022030F60076088F
:10277000A400BA2B0130F6000310A00DA10DA20D8C
:10278000A30DF60BBC2B733084000008F600840AFE
:102790000008F700840A0008F800840A0008F9001D
:1027A000703084000008FA00840A0008FB00840AE4
:1027B0000008FC00840A0008FD0079087D02031D62
:1027C000EB2B78087C02031DEB2B77087B02031DA3
:1027D000EB2B76087A02031CEE2BEF2B122C7330B6
:1027E00084000008F600840A0008F700840A000844
:1027F000F800840A0008F90070308400760880022E
:10280000840A7708031C770F8002840A7808031C67
:10281000780F8002840A7908031C790A8002033049
:10282000840220147030840001300310800D840A6B
:10283000800D840A800D840A800D84038403840340
:10284000FF3E031D152C0130A402031D282C292C4A
:10285000BA2BA51F2C2C2D2C522C2508803A9F3EDC
:102860000318332C342C3F2C0030F3000030F200DE
:102870000030F1000030F0007F2C7F2C3F2C013025
:102880000310A30CA20CA10CA00CFF3E031D402CB6
:102890000130F6007608A507031D4F2C502C3F2C65
:1028A000762C762C20302502031C572C582C6F2CAC
:1028B0000030F3000030F2000030F1000030F00092
:1028C0007F2C7F2C6F2C0130F6000310A00DA10D82
:1028D000A20DA30DF60B652C0130A5026F2CA508E7
:1028E000031D732C742C632C762C762C2308F30098
:1028F0002208F2002108F1002008F0007F2C0800D7
:1029000083120313E1006E306102031C882C892CB2
:10291000662D0330D5005508A4000A30F7000030BA
:10292000F8006108D600D7015608F2005708F300F6
:102930006430F0000030F1000A168A1582230A166E
:102940008A117108FA01FA077008F901F9070A16E5
:102950008A1531250A168A117708093E0A128A114A
:1029600004200A168A11293E84000A168A110020C2
:102970000A168A1183120313B5000A168A11002061
:102980000A168A11B6000A168A1100200A168A1140
:10299000B7000330D8005808A4006430F7000030B6
:1029A000F8006108D900DA015908F9005A08FA005C
:1029B0000A168A1531250A168A117708123E0A125C
:1029C0008A1104200A168A11293E84000A168A11E7
:1029D00000200A168A1183120313B8000A168A11FE
:1029E00000200A168A11B9000A168A1100200A1658
:1029F0008A11BA000A128A111E200A168A1183123D
:102A000003133508DE003608DF003708E000033026
:102A1000D5005508A4006108D600D7015608F20079
:102A20005708F3000A30F0000030F1000A168A154A
:102A300082230A168A1170080A128A1104200A16C3
:102A40008A11293E84000A168A1100200A168A116A
:102A500083120313B5000A168A1100200A168A1180
:102A6000B6000A168A1100200A168A11B7005E08FD
:102A7000B8005F08B9006008BA000A128A111E2067
:102A80000A168A11831203133508DB003608DC00AE
:102A90003708DD000030B5000030B6003F30B70029
:102AA0005B08B8005C08B9005D08BA000A128A1118
:102AB0001E200A168A11831203133508D200360825
:102AC000D3003708D4002A2E2A2EF62D0B306102AF
:102AD000031C6B2D6C2DF62D0330D5005508A4007A
:102AE0006108D600D7015608F2005708F3000A30F3
:102AF000F0000030F1000A168A1582230A168A11A6
:102B000070080A128A1104200A168A11293E8400CC
:102B10000A168A1100200A168A1183120313B500BF
:102B20000A168A1100200A168A11B6000A168A119E
:102B300000200A168A11B7000330D8005808A400F4
:102B40000A30F7000030F8006108D900DA015908AE
:102B5000F9005A08FA000A168A1531250A168A1150
:102B60007708093E0A128A1104200A168A11293EA2
:102B700084000A168A1100200A168A118312031390
:102B8000B8000A168A1100200A168A11B9000A161E
:102B90008A1100200A168A11BA000A128A111E2010
:102BA0000A168A11831203133508DE003608DF0087
:102BB0003708E0000030B5000030B6003F30B70005
:102BC0005E08B8005F08B9006008BA000A128A11EE
:102BD0001E200A168A11831203133508D200360804
:102BE000D3003708D4002A2E2A2EF62D0030B50047
:102BF0000030B6003F30B7000330D5005508A400C0
:102C000061080A128A1104200A168A11293E8400DA
:102C10000A168A1100200A168A1183120313B800BB
:102C20000A168A1100200A168A11B9000A168A119A
:102C300000200A168A11BA000A128A111E200A16EA
:102C40008A11831203133508D2003608D3003708DF
:102C5000D4002A2E080083120313061086140615CA
:102C60008615061A342E352E4D2E0730F2005830B8
:102C7000F1005E30F000F00B3B2EF10B3B2EF20B1F
:102C80003B2E422E432E83120313061E482E492E3E
:102C9000432E4A2E3730FF2FFF2F861A502E512EEB
:102CA000692E0730F2005830F1005E30F000F00B72
:102CB000572EF10B572EF20B572E5E2E5F2E8312DE
:102CC0000313861E642E652E5F2E662E3830FF2F6E
:102CD000FF2F061B6C2E6D2E852E0730F20058300C
:102CE000F1005E30F000F00B732EF10B732EF20B3F
:102CF000732E7A2E7B2E83120313061F802E812EB5
:102D00007B2E822E3930FF2FFF2F861B882E892E97
:102D1000A12E0730F2005830F1005E30F000F00BC9
:102D20008F2EF10B8F2EF20B8F2E962E972E831255
:102D30000313861F9C2E9D2E972E9E2E2F30FF2F25
:102D4000FF2F0614861006158615061AA82EA92E22
:102D5000C12E0730F2005830F1005E30F000F00B69
:102D6000AF2EF10BAF2EF20BAF2EB62EB72E831275
:102D70000313061EBC2EBD2EB72EBE2E3430FF2FE1
:102D8000FF2F861AC42EC52EDD2E0730F2005830D4
:102D9000F1005E30F000F00BCB2EF10BCB2EF20BDE
:102DA000CB2ED22ED32E83120313861ED82ED92ECD
:102DB000D32EDA2E3530FF2FFF2F061BE02EE12E0B
:102DC000F92E0730F2005830F1005E30F000F00BC1
:102DD000E72EF10BE72EF20BE72EEE2EEF2E8312ED
:102DE0000313061FF42EF52EEF2EF62E3630FF2F8E
:102DF000FF2F861BFC2EFD2E152F0730F2005830BA
:102E0000F1005E30F000F00B032FF10B032FF20BFB
:102E1000032F0A2F0B2F83120313861F102F112F3E
:102E20000B2F122F7830FF2FFF2F06148614061158
:102E30008615061A1C2F1D2F352F0730F20058302B
:102E4000F1005E30F000F00B232FF10B232FF20B7B
:102E5000232F2A2F2B2F83120313061E302F312FDF
:102E60002B2F322F3130FF2FFF2F861A382F392F7B
:102E7000512F0730F2005830F1005E30F000F00BB7
:102E80003F2FF10B3F2FF20B3F2F462F472F83127F
:102E90000313861E4C2F4D2F472F4E2F3230FF2FFE
:102EA000FF2F061B542F552F6D2F0730F20058307F
:102EB000F1005E30F000F00B5B2FF10B5B2FF20B9B
:102EC0005B2F622F632F83120313061F682F692F56
:102ED000632F6A2F3330FF2FFF2F861B702F712F28
:102EE000892F0730F2005830F1005E30F000F00B0F
:102EF000772FF10B772FF20B772F7E2F7F2F8312F7
:102F00000313861F842F852F7F2F862F2D30FF2FB1
:102F1000FF2F0614861406158611061A902F912F7E
:102F2000A92F0730F2005830F1005E30F000F00BAE
:102F3000972FF10B972FF20B972F9E2F9F2F831216
:102F40000313061EA42FA52F9F2FA62F4330FF2F5C
:102F5000FF2F861AAC2FAD2FC52F0730F200583047
:102F6000F1005E30F000F00BB32FF10BB32FF20B3A
:102F7000B32FBA2FBB2F83120313861EC02FC12F6E
:102F8000BB2FC22F3030FF2FFF2F061BC82FC92F9A
:102F9000E12F0730F2005830F1005E30F000F00B06
:102FA000CF2FF10BCF2FF20BCF2FD62FD72F83128E
:102FB0000313061FDC2FDD2FD72FDE2F3D30FF2F11
:102FC000FF2F861BE42FE52FFD2F0730F20058302E
:102FD000F1005E30F000F00BEB2FF10BEB2FF20B5A
:102FE000EB2FF22FF32F83120313861FF82FF92FE5
:102FF000F32FFA2F2B30FF2FFF2F6E30FF2F0800FB
:10323A00831203138601F0308316031386007F304E
:10324A00F0007008810508007208710470040319FF
:10325A002F29302933298030F206332934290800EE
:10326A00F100F0013A30710203183C293D2947293F
:10327A0030307102031C422943294729F001031403
:10328A00F00D4729700C4929080001300A168A15E1
:10329A00FB210A168A1502300A168A15FB210A161C
:1032AA008A150D30F600FB30F500F50B5A29F60B9E
:1032BA005A295F2908006E30F3007308F4006E295A
:1032CA000A168A112B260A168A15F3007308F400C7
:1032DA006E2974086E3A03197329742965297529A8
:1032EA007408772908008312031308140430F100C4
:1032FA003D30F000F00B7F29F10B7F2984298312DE
:10330A00031308100430F1003D30F000F00B8B2954
:10331A00F10B8B2990290800803083120313D406FD
:10332A005508C5005608C6005708C7005208C80005
:10333A005308C9005408CA000A168A11E6210A1657
:10334A008A15831203134508D2004608D30047089A
:10335A00D400AF290800F600C329760884000A16AB
:10336A008A1100200A168A150A128A1505200A16D9
:10337A008A150130F5007508F607C3297608840016
:10338A000A168A1100200A168A150038031DCE294A
:10339A00CF29B229D0290800F401F501D429701CDB
:1033AA00D729D829DE297208F4070318F50A730801
:1033BA00F50701300310F20DF30DFF3E031DDF295F
:1033CA0001300310F10CF00CFF3E031DE6297108D1
:1033DA007004031DF129F229D429F3297508F10192
:1033EA00F1077408F001F007FA290800F4008312C3
:1033FA00031388100F30F200720888057408F03938
:10340A00F200720888040A168A1578210A168A15A3
:10341A000F30F20072088312031388057408F20051
:10342A0003300310F20DFF3E031D162A0310720D1E
:10343A00F039F300730888040A168A1578210A16E7
:10344A008A1508008E30FC007C08FD003A2A0130FB
:10345A000310FB0CFA0CF90CF80CFF3E031D2D2A85
:10346A000130FC007C08FD073A2AFF307B05031D6A
:10347A003F2A402A2C2A412A7808F0007908F100CC
:10348A007A08F2007D08FC007C08F300F4010A16B1
:10349A008A15A7250A168A157008F8007108F90016
:1034AA007208FA00582A08000A168A154A210A16CA
:1034BA008A157C2A95300A168A15B0210A168A15A9
:1034CA008C2A77300A168A15B0210A168A158C2A90
:1034DA0086300A168A15B0210A168A158C2A953062
:1034EA000A168A15B0210A168A158C2A8C2A780897
:1034FA00003A0319812A742A7708003A03195F2AC5
:10350A00013A0319662A033A03196D2A742A080034
:10351A000030FC000030FB000030FA000030F900F7
:10352A00962A701C992A9A2AB22A7408F9077508E9
:10353A0003110318013E0319A32AFA077608031197
:10354A000318013E0319AA2AFB0777080311031877
:10355A00013E0319B12AFC07B22A0130F800031010
:10356A00F40DF50DF60DF70DF80BB42A0130031022
:10357A00F30CF20CF10CF00CFF3E031DBC2A73088D
:10358A00720471047004031DCB2ACC2A962ACD2A10
:10359A007C08F3007B08F2007A08F1007908F00051
:1035AA00D62A080083120313AD018E30AA002A0816
:1035BA00AC00A91FE12AE22A002BA609A709A8093B
:1035CA00A909A60A0319A70A0319A80A0319A90A25
:1035DA00AD010314AD0D002B002B01300310A90C13
:1035EA00A80CA70CA60CFF3E031DF32A0130AA0063
:1035FA002A08AC07002BFF302905031D052B062BD3
:10360A00F22A072B2608F0002708F1002808F20002
:10361A002C08AA002A08F3002D08AB002B08F40096
:10362A000A168A15A7250A168A1570088312031323
:10363A00A6007108A7007208A800232B08008312AD
:10364A000313230822042104200403192D2B2E2BF3
:10365A00782BA9010314A90D402B0130A8000310EF
:10366A00A00DA10DA20DA30DA80B342B0130A800AB
:10367A002808A907402BA31F432B442B322B462B88
:10368A00462B23082702031D542B22082602031D5A
:10369A00542B21082502031D542B20082402031C45
:1036AA00572B582B672B2008A4022108031C210F33
:1036BA00A5022208031C220FA6022308031C230FBB
:1036CA00A702672B01300310A30CA20CA10CA00CBB
:1036DA00FF3E031D682B0130A902031D752B762BB3
:1036EA00462B782B782B2708A3002608A20025084A
:1036FA00A1002408A000812B0800F601F31F862BE5
:10370A00872B902BF209F309F20A0319F30AF6013F
:10371A000314F60D902BF11F932B942B9A2BF0097F
:10372A00F109F00A0319F10A9A2B710870040319B6
:10373A009F2BA02BD62BF5010314F50DB02B0130CE
:10374A000310F00DF10DFF3E031DA52B0130F4000F
:10375A007408F507B02BF11FB32BB42BA42BB62B8F
:10376A00B62B71087302031DBC2B70087202031C6E
:10377A00BF2BC02BC72B7008F2027108031CF3037E
:10378A00F302C72B01300310F10CF00CFF3E031DAE
:10379A00C82B0130F502031DD32BD42BB62BD62B05
:1037AA00D62B7608031DDA2BE02BF209F309F20A6D
:1037BA000319F30AE02B7308F101F1077208F0010B
:1037CA00F007E72B0800F21FEB2BEC2B122C003032
:1037DA00F6000030F7008030F8007009F90071092E
:1037EA00FA007209FB00F90A0319FA0A0319FB0A1B
:1037FA007908F6077A0803187A0F042C052CF707BC
:10380A007B0803187B0F0A2C0B2CF8077608F000AC
:10381A007708F1007808F200122CF51F152C162CE7
:10382A003C2C0030F6000030F7008030F8007309B5
:10383A00F9007409FA007509FB00F90A0319FA0A72
:10384A000319FB0A7908F6077A0803187A0F2E2C4F
:10385A002F2CF7077B0803187B0F342C352CF8071D
:10386A007608F3007708F4007808F5003C2C8030DD
:10387A00F2068030F50675087202031D4A2C740898
:10388A007102031D4A2C7308700203184D2C4E2C2A
:10389A00502C0310532C0314532C532C08000030C3
:1038AA00FC000030FB000030FA000030F900730819
:1038BA007204710470040319632C642CB82CFD0182
:1038CA000314FD0D762C0130F8000310F00DF10DF4
:1038DA00F20DF30DF80B6A2C0130F8007808FD0799
:1038EA00762CF31F792C7A2C682C7C2C7C2C0130BA
:1038FA00F8000310F90DFA0DFB0DFC0DF80B7E2CE8
:10390A0073087702031D932C72087602031D932C09
:10391A0071087502031D932C70087402031C962CFF
:10392A00972CA72C7008F4027108031C710FF5027A
:10393A007208031C720FF6027308031C730FF70256
:10394A007914A72C01300310F30CF20CF10CF00CD3
:10395A00FF3E031DA82C0130FD02031DB52CB62C19
:10396A007C2CB82CB82C7C08F3007B08F2007A086F
:10397A00F1007908F000C12C0800F900FA01FB01F6
:10398A00062DFA01FB01292D0130FA000030FB0057
:10399A00292D0230FA000030FB00292D0330FA00ED
:1039AA000030FB00292D0430FA000030FB00292DDD
:1039BA000530FA000030FB00292D0630FA000030ED
:1039CA00FB00292D0730FA000030FB00292D0830B2
:1039DA00FA000030FB00292D0930FA000030FB0004
:1039EA00292D0A168A154A210A168A150D30FA0057
:1039FA000030FB00292D0D30FA000030FB00292D84
:103A0A00292D7908303A0319C62C013A0319C92C11
:103A1A00033A0319CE2C013A0319D32C073A031996
:103A2A00D82C013A0319DD2C033A0319E22C013A86
:103A3A000319E72C0F3A0319EC2C013A0319F12C5C
:103A4A007A3A0319F62C002D7B08F801F8077A0850
:103A5A00F701F707302D080083120313A101F81F9D
:103A6A00372D382D412DF709F809F70A0319F80AF5
:103A7A00A1010314A10D412DFA1F442D452D4F2DEF
:103A8A00F909FA09F90A0319FA0A0130FB007B0855
:103A9A00A1064F2DA201A301780877040319562D18
:103AAA00572D952DA0010314A00D672D0130031089
:103ABA00F70DF80DFF3E031D5C2D0130FB007B085E
:103ACA00A007672DF81F6A2D6B2D5B2D6D2D6D2DAF
:103ADA0001300310A20DA30DFF3E031D6E2D7808C1
:103AEA007A02031D7A2D77087902031C7D2D7E2D1B
:103AFA00862D7708F9027808031CFA03FA022214C1
:103B0A00862D01300310F80CF70CFF3E031D872D9C
:103B1A000130A002031D922D932D6D2D952D952D0B
:103B2A002108031D992D9F2DA209A309A20A031991
:103B3A00A30A9F2D2308F801F8072208F701F707BF
:103B4A00A62D08007308031DAB2DB32D720871044E
:103B5A007004031DB12DB22DC92DB32D0030F00014
:103B6A000030F1000030F200212E212EC92D013043
:103B7A00F5007508F30701300310F20CF10CF00C94
:103B8A00FF3E031DC12DC92DFE307205031DCE2D2A
:103B9A00CF2DBC2DE72DE72D0130F5007508F30771
:103BAA000130F007003003180130F1070030031824
:103BBA000130F20701300310F20CF10CF00CFF3E59
:103BCA00031DE02DFF307205031DEC2DED2DD12DC7
:103BDA00FA2DFA2D0130F30201300310F00DF10D28
:103BEA00F20DFF3E031DF22DFA2DF11FFD2DFE2DC4
:103BFA00EF2D7318012E022E082EFF30F0057F30AC
:103C0A00F105FF30F2050310F30C7308F500F60115
:103C1A00F70110300310F50DF60DF70DFF3E031DE9
:103C2A000F2E7508F0047608F1047708F204740878
:103C3A00031D202E212EF2170800831203130810E9
:103C4A0088100812881208138813831603130810A1
:103C5A00881008128812081388130230F7000430FB
:103C6A00F600BA30F500F50B382EF60B382EF70BA6
:103C7A00382E64000F30F500750883120313880587
:103C8A003030F500750888040A168A1578210A1654
:103C9A008A152730F600F530F500F50B522EF60B93
:103CAA00522E0F30F5007508831203138805303041
:103CBA00F500750888040A168A1578210A168A15E5
:103CCA00D630F500682E692EF50B672E64000F308A
:103CDA00F50075088312031388053030F50075085E
:103CEA0088040A168A1578210A168A150D30F600F4
:103CFA00FB30F500F50B7F2EF60B7F2E842E0F304E
:103D0A00F500750883120313880588160A168A15A2
:103D1A0078210A168A150D30F600FB30F500F50BEE
:103D2A00942EF60B942E992E28300A168A15FB210A
:103D3A000A168A150C300A168A15FB210A168A15E4
:103D4A0001300A168A15FB210A168A1506300A1648
:103D5A008A15FB210A168A150800831203132708FD
:103D6A00AB002808AC002908AD0003102C0D2D0D5E
:103D7A00AE002E08B400B408031DC42EC52ECF2EE3
:103D8A000030AA000030A9000030A8000030A700C7
:103D9A00572F572F2708AB002808AC002908AD0079
:103DAA0017300310AD0CAC0CAB0CFF3E031DD62E26
:103DBA002B08AE002E08AF00A817FF30A705FF306A
:103DCA00A8050030A9052708B0002808B10029086D
:103DDA00B200B3018E30B402B41FF42EF52E1A2F9E
:103DEA003408803A8F3E0318FB2EFC2E072F003032
:103DFA00AA000030A9000030A8000030A700572F01
:103E0A00572F072F01300310B30CB20CB10CB00CB2
:103E1A00FF3E031D082F0130AB002B08B407031D1A
:103E2A00172F182F072F3E2F3E2F18303402031C4E
:103E3A001F2F202F372F0030AA000030A900003092
:103E4A00A8000030A700572F572F372F0130AB009B
:103E5A000310B00DB10DB20DB30DAB0B2D2F013008
:103E6A00B402372FB408031D3B2F3C2F2B2F3E2FB4
:103E7A003E2F2F08031D422F4E2FB009B109B20958
:103E8A00B309B00A0319B10A0319B20A0319B30A2A
:103E9A004E2F3308AA003208A9003108A8003008BA
:103EAA00A700572F080083120313A101F31F5E2FE7
:103EBA005F2F6E2FF009F109F209F309F00A0319CD
:103ECA00F10A0319F20A0319F30AA1010314A10D55
:103EDA006E2FF71F712F722F822FF409F509F60939
:103EEA00F709F40A0319F50A0319F60A0319F70A76
:103EFA000130F8007808A106822F0030A5000030B2
:103F0A00A4000030A3000030A200730872047104F8
:103F1A0070040319912F922FE62FA0010314A00D0C
:103F2A00A42F0130F8000310F00DF10DF20DF30D7E
:103F3A00F80B982F0130F8007808A007A42FF31F78
:103F4A00A72FA82F962FAA2FAA2F0130F800031007
:103F5A00A20DA30DA40DA50DF80BAC2F73087702C3
:103F6A00031DC12F72087602031DC12F7108750245
:103F7A00031DC12F70087402031CC42FC52FD52F2F
:103F8A007008F4027108031C710FF5027208031C11
:103F9A00720FF6027308031C730FF7022214D52F4F
:103FAA0001300310F30CF20CF10CF00CFF3E031D70
:103FBA00D62F0130A002031DE32FE42FAA2FE62FEC
:103FCA00E62F2108031DEA2FF62FA209A309A40947
:103FDA00A509A20A0319A30A0319A40A0319A50A1F
:103FEA00F62F2508F3002408F2002308F10022081E
:063FFA00F000FF2F08009B
:02400E0072FF3F
:00000001FF
